{
  "_format": "hh-sol-artifact-1",
  "contractName": "CommunityLedgerAdapter",
  "sourceName": "contracts/CommunityLedgerAdapter.sol",
  "abi": [
    {
      "inputs": [],
      "stateMutability": "nonpayable",
      "type": "constructor"
    },
    {
      "anonymous": false,
      "inputs": [
        {
          "indexed": false,
          "internalType": "address",
          "name": "manager",
          "type": "address"
        }
      ],
      "name": "ManagerChanged",
      "type": "event"
    },
    {
      "anonymous": false,
      "inputs": [
        {
          "indexed": true,
          "internalType": "bytes32",
          "name": "proposalId",
          "type": "bytes32"
        },
        {
          "indexed": false,
          "internalType": "string",
          "name": "title",
          "type": "string"
        },
        {
          "indexed": true,
          "internalType": "enum CommunityLedgerLib.VoteStatus",
          "name": "status",
          "type": "uint8"
        }
      ],
      "name": "ProposalChanged",
      "type": "event"
    },
    {
      "anonymous": false,
      "inputs": [
        {
          "indexed": false,
          "internalType": "uint256",
          "name": "amount",
          "type": "uint256"
        }
      ],
      "name": "QuotaChanged",
      "type": "event"
    },
    {
      "anonymous": false,
      "inputs": [
        {
          "indexed": false,
          "internalType": "address",
          "name": "to",
          "type": "address"
        },
        {
          "indexed": true,
          "internalType": "uint256",
          "name": "amout",
          "type": "uint256"
        },
        {
          "indexed": false,
          "internalType": "string",
          "name": "proposalTitle",
          "type": "string"
        }
      ],
      "name": "Transfer",
      "type": "event"
    },
    {
      "inputs": [
        {
          "internalType": "address",
          "name": "_resident",
          "type": "address"
        },
        {
          "internalType": "uint16",
          "name": "_residence",
          "type": "uint16"
        }
      ],
      "name": "addResident",
      "outputs": [],
      "stateMutability": "nonpayable",
      "type": "function"
    },
    {
      "inputs": [
        {
          "internalType": "string",
          "name": "_title",
          "type": "string"
        }
      ],
      "name": "closeVote",
      "outputs": [],
      "stateMutability": "nonpayable",
      "type": "function"
    },
    {
      "inputs": [
        {
          "internalType": "string",
          "name": "_title",
          "type": "string"
        },
        {
          "internalType": "string",
          "name": "_description",
          "type": "string"
        },
        {
          "internalType": "enum CommunityLedgerLib.Category",
          "name": "_category",
          "type": "uint8"
        },
        {
          "internalType": "uint256",
          "name": "_amount",
          "type": "uint256"
        },
        {
          "internalType": "address",
          "name": "_responsible",
          "type": "address"
        }
      ],
      "name": "createProposal",
      "outputs": [],
      "stateMutability": "nonpayable",
      "type": "function"
    },
    {
      "inputs": [
        {
          "internalType": "string",
          "name": "_proposalTitle",
          "type": "string"
        },
        {
          "internalType": "string",
          "name": "_description",
          "type": "string"
        },
        {
          "internalType": "uint256",
          "name": "_amount",
          "type": "uint256"
        },
        {
          "internalType": "address",
          "name": "_responsible",
          "type": "address"
        }
      ],
      "name": "editProposal",
      "outputs": [],
      "stateMutability": "nonpayable",
      "type": "function"
    },
    {
      "inputs": [],
      "name": "getImplAddress",
      "outputs": [
        {
          "internalType": "address",
          "name": "",
          "type": "address"
        }
      ],
      "stateMutability": "view",
      "type": "function"
    },
    {
      "inputs": [],
      "name": "i_owner",
      "outputs": [
        {
          "internalType": "address",
          "name": "",
          "type": "address"
        }
      ],
      "stateMutability": "view",
      "type": "function"
    },
    {
      "inputs": [],
      "name": "implementation",
      "outputs": [
        {
          "internalType": "contract ICommunityLedger",
          "name": "",
          "type": "address"
        }
      ],
      "stateMutability": "view",
      "type": "function"
    },
    {
      "inputs": [
        {
          "internalType": "string",
          "name": "_title",
          "type": "string"
        }
      ],
      "name": "openVote",
      "outputs": [],
      "stateMutability": "nonpayable",
      "type": "function"
    },
    {
      "inputs": [
        {
          "internalType": "uint16",
          "name": "residenceId",
          "type": "uint16"
        }
      ],
      "name": "payQuota",
      "outputs": [],
      "stateMutability": "payable",
      "type": "function"
    },
    {
      "inputs": [
        {
          "internalType": "string",
          "name": "_title",
          "type": "string"
        }
      ],
      "name": "removeProposal",
      "outputs": [],
      "stateMutability": "nonpayable",
      "type": "function"
    },
    {
      "inputs": [
        {
          "internalType": "address",
          "name": "_resident",
          "type": "address"
        }
      ],
      "name": "removeResident",
      "outputs": [],
      "stateMutability": "nonpayable",
      "type": "function"
    },
    {
      "inputs": [
        {
          "internalType": "address",
          "name": "_resident",
          "type": "address"
        },
        {
          "internalType": "bool",
          "name": "_isEntering",
          "type": "bool"
        }
      ],
      "name": "setCounselor",
      "outputs": [],
      "stateMutability": "nonpayable",
      "type": "function"
    },
    {
      "inputs": [
        {
          "internalType": "address",
          "name": "_implementation",
          "type": "address"
        }
      ],
      "name": "setImplementation",
      "outputs": [],
      "stateMutability": "nonpayable",
      "type": "function"
    },
    {
      "inputs": [
        {
          "internalType": "string",
          "name": "_proposalTitle",
          "type": "string"
        },
        {
          "internalType": "uint256",
          "name": "_amount",
          "type": "uint256"
        }
      ],
      "name": "transfer",
      "outputs": [],
      "stateMutability": "nonpayable",
      "type": "function"
    },
    {
      "inputs": [
        {
          "internalType": "string",
          "name": "_title",
          "type": "string"
        },
        {
          "internalType": "enum CommunityLedgerLib.Options",
          "name": "_option",
          "type": "uint8"
        }
      ],
      "name": "vote",
      "outputs": [],
      "stateMutability": "nonpayable",
      "type": "function"
    }
  ],
  "bytecode": "0x60a0604052348015600f57600080fd5b503373ffffffffffffffffffffffffffffffffffffffff1660808173ffffffffffffffffffffffffffffffffffffffff168152505060805161243161006660003960008181611447015261158701526124316000f3fe6080604052600436106100e85760003560e01c806390ca27f31161008a578063bbcbdc6111610059578063bbcbdc61146102b4578063c12e8063146102dd578063d784d426146102f9578063dba6335f14610322576100e8565b806390ca27f31461021057806396fa1def14610239578063a24bb20514610262578063b15835461461028b576100e8565b80635c60da1b116100c65780635c60da1b146101685780636974a0cb146101935780637311ad81146101bc57806386ac0f67146101e7576100e8565b806311da65c6146100ed57806312cb70c714610116578063597de9871461013f575b600080fd5b3480156100f957600080fd5b50610114600480360381019061010f9190611703565b61034d565b005b34801561012257600080fd5b5061013d60048036038101906101389190611782565b6104dd565b005b34801561014b57600080fd5b506101666004803603810190610161919061183c565b61065f565b005b34801561017457600080fd5b5061017d61077c565b60405161018a91906118c8565b60405180910390f35b34801561019f57600080fd5b506101ba60048036038101906101b591906118e3565b6107a0565b005b3480156101c857600080fd5b506101d1610939565b6040516101de9190611991565b60405180910390f35b3480156101f357600080fd5b5061020e600480360381019061020991906119d1565b610962565b005b34801561021c57600080fd5b5061023760048036038101906102329190611aa9565b610a8b565b005b34801561024557600080fd5b50610260600480360381019061025b9190611b3d565b610bab565b005b34801561026e57600080fd5b5061028960048036038101906102849190611703565b610ccb565b005b34801561029757600080fd5b506102b260048036038101906102ad9190611bb7565b611077565b005b3480156102c057600080fd5b506102db60048036038101906102d69190611703565b611197565b005b6102f760048036038101906102f29190611bf7565b611327565b005b34801561030557600080fd5b50610320600480360381019061031b919061183c565b611445565b005b34801561032e57600080fd5b50610337611585565b6040516103449190611991565b60405180910390f35b600073ffffffffffffffffffffffffffffffffffffffff1660008054906101000a900473ffffffffffffffffffffffffffffffffffffffff1673ffffffffffffffffffffffffffffffffffffffff16036103dc576040517f08c379a00000000000000000000000000000000000000000000000000000000081526004016103d390611c81565b60405180910390fd5b60008060009054906101000a900473ffffffffffffffffffffffffffffffffffffffff1673ffffffffffffffffffffffffffffffffffffffff166311da65c6836040518263ffffffff1660e01b81526004016104389190611d0f565b6000604051808303816000875af1158015610457573d6000803e3d6000fd5b505050506040513d6000823e3d601f19601f820116820180604052508101906104809190611eaf565b90508060600151600581111561049957610498611ef8565b5b81600001517fe6b2c8c2fa561216f1508fe43b60d524cfd50c46bbf1aa673a778464f8bf8db283602001516040516104d19190611d0f565b60405180910390a35050565b600073ffffffffffffffffffffffffffffffffffffffff1660008054906101000a900473ffffffffffffffffffffffffffffffffffffffff1673ffffffffffffffffffffffffffffffffffffffff160361056c576040517f08c379a000000000000000000000000000000000000000000000000000000000815260040161056390611c81565b60405180910390fd5b60008060009054906101000a900473ffffffffffffffffffffffffffffffffffffffff1673ffffffffffffffffffffffffffffffffffffffff166312cb70c784846040518363ffffffff1660e01b81526004016105ca929190611f36565b6000604051808303816000875af11580156105e9573d6000803e3d6000fd5b505050506040513d6000823e3d601f19601f820116820180604052508101906106129190612010565b905080602001517feb10b79f28ae0b520cb7ee8e40115f547bfac852d7167a55d9ae8e028ee23a1182600001518360400151604051610652929190612059565b60405180910390a2505050565b600073ffffffffffffffffffffffffffffffffffffffff1660008054906101000a900473ffffffffffffffffffffffffffffffffffffffff1673ffffffffffffffffffffffffffffffffffffffff16036106ee576040517f08c379a00000000000000000000000000000000000000000000000000000000081526004016106e590611c81565b60405180910390fd5b60008054906101000a900473ffffffffffffffffffffffffffffffffffffffff1673ffffffffffffffffffffffffffffffffffffffff1663597de987826040518263ffffffff1660e01b81526004016107479190611991565b600060405180830381600087803b15801561076157600080fd5b505af1158015610775573d6000803e3d6000fd5b5050505050565b60008054906101000a900473ffffffffffffffffffffffffffffffffffffffff1681565b600073ffffffffffffffffffffffffffffffffffffffff1660008054906101000a900473ffffffffffffffffffffffffffffffffffffffff1673ffffffffffffffffffffffffffffffffffffffff160361082f576040517f08c379a000000000000000000000000000000000000000000000000000000000815260040161082690611c81565b60405180910390fd5b60008060009054906101000a900473ffffffffffffffffffffffffffffffffffffffff1673ffffffffffffffffffffffffffffffffffffffff16636974a0cb868686866040518563ffffffff1660e01b81526004016108919493929190612089565b6000604051808303816000875af11580156108b0573d6000803e3d6000fd5b505050506040513d6000823e3d601f19601f820116820180604052508101906108d99190611eaf565b9050806060015160058111156108f2576108f1611ef8565b5b81600001517fe6b2c8c2fa561216f1508fe43b60d524cfd50c46bbf1aa673a778464f8bf8db2836020015160405161092a9190611d0f565b60405180910390a35050505050565b60008060009054906101000a900473ffffffffffffffffffffffffffffffffffffffff16905090565b600073ffffffffffffffffffffffffffffffffffffffff1660008054906101000a900473ffffffffffffffffffffffffffffffffffffffff1673ffffffffffffffffffffffffffffffffffffffff16036109f1576040517f08c379a00000000000000000000000000000000000000000000000000000000081526004016109e890611c81565b60405180910390fd5b60008054906101000a900473ffffffffffffffffffffffffffffffffffffffff1673ffffffffffffffffffffffffffffffffffffffff166386ac0f6786868686866040518663ffffffff1660e01b8152600401610a52959493929190612124565b600060405180830381600087803b158015610a6c57600080fd5b505af1158015610a80573d6000803e3d6000fd5b505050505050505050565b600073ffffffffffffffffffffffffffffffffffffffff1660008054906101000a900473ffffffffffffffffffffffffffffffffffffffff1673ffffffffffffffffffffffffffffffffffffffff1603610b1a576040517f08c379a0000000000000000000000000000000000000000000000000000000008152600401610b1190611c81565b60405180910390fd5b60008054906101000a900473ffffffffffffffffffffffffffffffffffffffff1673ffffffffffffffffffffffffffffffffffffffff166390ca27f383836040518363ffffffff1660e01b8152600401610b759291906121cd565b600060405180830381600087803b158015610b8f57600080fd5b505af1158015610ba3573d6000803e3d6000fd5b505050505050565b600073ffffffffffffffffffffffffffffffffffffffff1660008054906101000a900473ffffffffffffffffffffffffffffffffffffffff1673ffffffffffffffffffffffffffffffffffffffff1603610c3a576040517f08c379a0000000000000000000000000000000000000000000000000000000008152600401610c3190611c81565b60405180910390fd5b60008054906101000a900473ffffffffffffffffffffffffffffffffffffffff1673ffffffffffffffffffffffffffffffffffffffff166396fa1def83836040518363ffffffff1660e01b8152600401610c9592919061220c565b600060405180830381600087803b158015610caf57600080fd5b505af1158015610cc3573d6000803e3d6000fd5b505050505050565b600073ffffffffffffffffffffffffffffffffffffffff1660008054906101000a900473ffffffffffffffffffffffffffffffffffffffff1673ffffffffffffffffffffffffffffffffffffffff1603610d5a576040517f08c379a0000000000000000000000000000000000000000000000000000000008152600401610d5190611c81565b60405180910390fd5b60008060009054906101000a900473ffffffffffffffffffffffffffffffffffffffff1673ffffffffffffffffffffffffffffffffffffffff1663a24bb205836040518263ffffffff1660e01b8152600401610db69190611d0f565b6000604051808303816000875af1158015610dd5573d6000803e3d6000fd5b505050506040513d6000823e3d601f19601f82011682018060405250810190610dfe9190611eaf565b905080606001516005811115610e1757610e16611ef8565b5b81600001517fe6b2c8c2fa561216f1508fe43b60d524cfd50c46bbf1aa673a778464f8bf8db28360200151604051610e4f9190611d0f565b60405180910390a360026005811115610e6b57610e6a611ef8565b5b81606001516005811115610e8257610e81611ef8565b5b0361107357600380811115610e9a57610e99611ef8565b5b81604001516003811115610eb157610eb0611ef8565b5b03610f7c577f198db6e425fb8aafd1823c6ca50be2d51e5764571a5ae0f0f21c6812e45def0b60008054906101000a900473ffffffffffffffffffffffffffffffffffffffff1673ffffffffffffffffffffffffffffffffffffffff1663d50095846040518163ffffffff1660e01b8152600401602060405180830381865afa158015610f42573d6000803e3d6000fd5b505050506040513d601f19601f82011682018060405250810190610f669190612235565b604051610f739190611991565b60405180910390a15b60026003811115610f9057610f8f611ef8565b5b81604001516003811115610fa757610fa6611ef8565b5b03611072577f274a3b0d5142ec9fc4e77bd3ffc173b4e7c6c64eca73b31a6c6906b184257e7e60008054906101000a900473ffffffffffffffffffffffffffffffffffffffff1673ffffffffffffffffffffffffffffffffffffffff16631df8ba776040518163ffffffff1660e01b8152600401602060405180830381865afa158015611038573d6000803e3d6000fd5b505050506040513d601f19601f8201168201806040525081019061105c9190612262565b604051611069919061228f565b60405180910390a15b5b5050565b600073ffffffffffffffffffffffffffffffffffffffff1660008054906101000a900473ffffffffffffffffffffffffffffffffffffffff1673ffffffffffffffffffffffffffffffffffffffff1603611106576040517f08c379a00000000000000000000000000000000000000000000000000000000081526004016110fd90611c81565b60405180910390fd5b60008054906101000a900473ffffffffffffffffffffffffffffffffffffffff1673ffffffffffffffffffffffffffffffffffffffff1663b158354683836040518363ffffffff1660e01b81526004016111619291906122b9565b600060405180830381600087803b15801561117b57600080fd5b505af115801561118f573d6000803e3d6000fd5b505050505050565b600073ffffffffffffffffffffffffffffffffffffffff1660008054906101000a900473ffffffffffffffffffffffffffffffffffffffff1673ffffffffffffffffffffffffffffffffffffffff1603611226576040517f08c379a000000000000000000000000000000000000000000000000000000000815260040161121d90611c81565b60405180910390fd5b60008060009054906101000a900473ffffffffffffffffffffffffffffffffffffffff1673ffffffffffffffffffffffffffffffffffffffff1663bbcbdc61836040518263ffffffff1660e01b81526004016112829190611d0f565b6000604051808303816000875af11580156112a1573d6000803e3d6000fd5b505050506040513d6000823e3d601f19601f820116820180604052508101906112ca9190611eaf565b9050806060015160058111156112e3576112e2611ef8565b5b81600001517fe6b2c8c2fa561216f1508fe43b60d524cfd50c46bbf1aa673a778464f8bf8db2836020015160405161131b9190611d0f565b60405180910390a35050565b600073ffffffffffffffffffffffffffffffffffffffff1660008054906101000a900473ffffffffffffffffffffffffffffffffffffffff1673ffffffffffffffffffffffffffffffffffffffff16036113b6576040517f08c379a00000000000000000000000000000000000000000000000000000000081526004016113ad90611c81565b60405180910390fd5b60008054906101000a900473ffffffffffffffffffffffffffffffffffffffff1673ffffffffffffffffffffffffffffffffffffffff1663c12e806334836040518363ffffffff1660e01b815260040161141091906122e2565b6000604051808303818588803b15801561142957600080fd5b505af115801561143d573d6000803e3d6000fd5b505050505050565b7f000000000000000000000000000000000000000000000000000000000000000073ffffffffffffffffffffffffffffffffffffffff163373ffffffffffffffffffffffffffffffffffffffff16146114d3576040517f08c379a00000000000000000000000000000000000000000000000000000000081526004016114ca9061236f565b60405180910390fd5b600073ffffffffffffffffffffffffffffffffffffffff168173ffffffffffffffffffffffffffffffffffffffff1603611542576040517f08c379a0000000000000000000000000000000000000000000000000000000008152600401611539906123db565b60405180910390fd5b806000806101000a81548173ffffffffffffffffffffffffffffffffffffffff021916908373ffffffffffffffffffffffffffffffffffffffff16021790555050565b7f000000000000000000000000000000000000000000000000000000000000000081565b6000604051905090565b600080fd5b600080fd5b600080fd5b600080fd5b6000601f19601f8301169050919050565b7f4e487b7100000000000000000000000000000000000000000000000000000000600052604160045260246000fd5b611610826115c7565b810181811067ffffffffffffffff8211171561162f5761162e6115d8565b5b80604052505050565b60006116426115a9565b905061164e8282611607565b919050565b600067ffffffffffffffff82111561166e5761166d6115d8565b5b611677826115c7565b9050602081019050919050565b82818337600083830152505050565b60006116a66116a184611653565b611638565b9050828152602081018484840111156116c2576116c16115c2565b5b6116cd848285611684565b509392505050565b600082601f8301126116ea576116e96115bd565b5b81356116fa848260208601611693565b91505092915050565b600060208284031215611719576117186115b3565b5b600082013567ffffffffffffffff811115611737576117366115b8565b5b611743848285016116d5565b91505092915050565b6000819050919050565b61175f8161174c565b811461176a57600080fd5b50565b60008135905061177c81611756565b92915050565b60008060408385031215611799576117986115b3565b5b600083013567ffffffffffffffff8111156117b7576117b66115b8565b5b6117c3858286016116d5565b92505060206117d48582860161176d565b9150509250929050565b600073ffffffffffffffffffffffffffffffffffffffff82169050919050565b6000611809826117de565b9050919050565b611819816117fe565b811461182457600080fd5b50565b60008135905061183681611810565b92915050565b600060208284031215611852576118516115b3565b5b600061186084828501611827565b91505092915050565b6000819050919050565b600061188e611889611884846117de565b611869565b6117de565b9050919050565b60006118a082611873565b9050919050565b60006118b282611895565b9050919050565b6118c2816118a7565b82525050565b60006020820190506118dd60008301846118b9565b92915050565b600080600080608085870312156118fd576118fc6115b3565b5b600085013567ffffffffffffffff81111561191b5761191a6115b8565b5b611927878288016116d5565b945050602085013567ffffffffffffffff811115611948576119476115b8565b5b611954878288016116d5565b93505060406119658782880161176d565b925050606061197687828801611827565b91505092959194509250565b61198b816117fe565b82525050565b60006020820190506119a66000830184611982565b92915050565b600481106119b957600080fd5b50565b6000813590506119cb816119ac565b92915050565b600080600080600060a086880312156119ed576119ec6115b3565b5b600086013567ffffffffffffffff811115611a0b57611a0a6115b8565b5b611a17888289016116d5565b955050602086013567ffffffffffffffff811115611a3857611a376115b8565b5b611a44888289016116d5565b9450506040611a55888289016119bc565b9350506060611a668882890161176d565b9250506080611a7788828901611827565b9150509295509295909350565b60048110611a9157600080fd5b50565b600081359050611aa381611a84565b92915050565b60008060408385031215611ac057611abf6115b3565b5b600083013567ffffffffffffffff811115611ade57611add6115b8565b5b611aea858286016116d5565b9250506020611afb85828601611a94565b9150509250929050565b60008115159050919050565b611b1a81611b05565b8114611b2557600080fd5b50565b600081359050611b3781611b11565b92915050565b60008060408385031215611b5457611b536115b3565b5b6000611b6285828601611827565b9250506020611b7385828601611b28565b9150509250929050565b600061ffff82169050919050565b611b9481611b7d565b8114611b9f57600080fd5b50565b600081359050611bb181611b8b565b92915050565b60008060408385031215611bce57611bcd6115b3565b5b6000611bdc85828601611827565b9250506020611bed85828601611ba2565b9150509250929050565b600060208284031215611c0d57611c0c6115b3565b5b6000611c1b84828501611ba2565b91505092915050565b600082825260208201905092915050565b7f496d706c656d656e746174696f6e206e6f742073657400000000000000000000600082015250565b6000611c6b601683611c24565b9150611c7682611c35565b602082019050919050565b60006020820190508181036000830152611c9a81611c5e565b9050919050565b600081519050919050565b60005b83811015611cca578082015181840152602081019050611caf565b60008484015250505050565b6000611ce182611ca1565b611ceb8185611c24565b9350611cfb818560208601611cac565b611d04816115c7565b840191505092915050565b60006020820190508181036000830152611d298184611cd6565b905092915050565b600080fd5b600080fd5b6000819050919050565b611d4e81611d3b565b8114611d5957600080fd5b50565b600081519050611d6b81611d45565b92915050565b6000611d84611d7f84611653565b611638565b905082815260208101848484011115611da057611d9f6115c2565b5b611dab848285611cac565b509392505050565b600082601f830112611dc857611dc76115bd565b5b8151611dd8848260208601611d71565b91505092915050565b600081519050611df0816119ac565b92915050565b60068110611e0357600080fd5b50565b600081519050611e1581611df6565b92915050565b600060808284031215611e3157611e30611d31565b5b611e3b6080611638565b90506000611e4b84828501611d5c565b600083015250602082015167ffffffffffffffff811115611e6f57611e6e611d36565b5b611e7b84828501611db3565b6020830152506040611e8f84828501611de1565b6040830152506060611ea384828501611e06565b60608301525092915050565b600060208284031215611ec557611ec46115b3565b5b600082015167ffffffffffffffff811115611ee357611ee26115b8565b5b611eef84828501611e1b565b91505092915050565b7f4e487b7100000000000000000000000000000000000000000000000000000000600052602160045260246000fd5b611f308161174c565b82525050565b60006040820190508181036000830152611f508185611cd6565b9050611f5f6020830184611f27565b9392505050565b600081519050611f7581611810565b92915050565b600081519050611f8a81611756565b92915050565b600060608284031215611fa657611fa5611d31565b5b611fb06060611638565b90506000611fc084828501611f66565b6000830152506020611fd484828501611f7b565b602083015250604082015167ffffffffffffffff811115611ff857611ff7611d36565b5b61200484828501611db3565b60408301525092915050565b600060208284031215612026576120256115b3565b5b600082015167ffffffffffffffff811115612044576120436115b8565b5b61205084828501611f90565b91505092915050565b600060408201905061206e6000830185611982565b81810360208301526120808184611cd6565b90509392505050565b600060808201905081810360008301526120a38187611cd6565b905081810360208301526120b78186611cd6565b90506120c66040830185611f27565b6120d36060830184611982565b95945050505050565b600481106120ed576120ec611ef8565b5b50565b60008190506120fe826120dc565b919050565b600061210e826120f0565b9050919050565b61211e81612103565b82525050565b600060a082019050818103600083015261213e8188611cd6565b905081810360208301526121528187611cd6565b90506121616040830186612115565b61216e6060830185611f27565b61217b6080830184611982565b9695505050505050565b6004811061219657612195611ef8565b5b50565b60008190506121a782612185565b919050565b60006121b782612199565b9050919050565b6121c7816121ac565b82525050565b600060408201905081810360008301526121e78185611cd6565b90506121f660208301846121be565b9392505050565b61220681611b05565b82525050565b60006040820190506122216000830185611982565b61222e60208301846121fd565b9392505050565b60006020828403121561224b5761224a6115b3565b5b600061225984828501611f66565b91505092915050565b600060208284031215612278576122776115b3565b5b600061228684828501611f7b565b91505092915050565b60006020820190506122a46000830184611f27565b92915050565b6122b381611b7d565b82525050565b60006040820190506122ce6000830185611982565b6122db60208301846122aa565b9392505050565b60006020820190506122f760008301846122aa565b92915050565b7f4f6e6c7920746865206f776e65722063616e207365742074686520696d706c6560008201527f6d656e746174696f6e0000000000000000000000000000000000000000000000602082015250565b6000612359602983611c24565b9150612364826122fd565b604082019050919050565b600060208201905081810360008301526123888161234c565b9050919050565b7f496e76616c696420696d706c656d656e746174696f6e20616464726573730000600082015250565b60006123c5601e83611c24565b91506123d08261238f565b602082019050919050565b600060208201905081810360008301526123f4816123b8565b905091905056fea2646970667358221220e45faf6c4ac05a1ddc1e6c8bbcfbde2ac5b8ced58dfa1c943c0a4f991bba1a1264736f6c634300081b0033",
  "linkReferences": {},
  "deployedLinkReferences": {}
}