{
  "_format": "hh-sol-artifact-1",
  "contractName": "CommunityLedger",
  "sourceName": "contracts/CommunityLedger.sol",
  "abi": [
    {
      "inputs": [],
      "stateMutability": "nonpayable",
      "type": "constructor"
    },
    {
      "inputs": [
        {
          "internalType": "address",
          "name": "resident",
          "type": "address"
        },
        {
          "internalType": "uint16",
          "name": "residence",
          "type": "uint16"
        }
      ],
      "name": "addResident",
      "outputs": [],
      "stateMutability": "nonpayable",
      "type": "function"
    },
    {
      "inputs": [
        {
          "internalType": "string",
          "name": "_title",
          "type": "string"
        }
      ],
      "name": "closeVote",
      "outputs": [
        {
          "components": [
            {
              "internalType": "bytes32",
              "name": "proposalId",
              "type": "bytes32"
            },
            {
              "internalType": "string",
              "name": "title",
              "type": "string"
            },
            {
              "internalType": "enum CommunityLedgerLib.Category",
              "name": "category",
              "type": "uint8"
            },
            {
              "internalType": "enum CommunityLedgerLib.VoteStatus",
              "name": "status",
              "type": "uint8"
            }
          ],
          "internalType": "struct CommunityLedgerLib.ProposalUpdate",
          "name": "",
          "type": "tuple"
        }
      ],
      "stateMutability": "nonpayable",
      "type": "function"
    },
    {
      "inputs": [
        {
          "internalType": "string",
          "name": "_title",
          "type": "string"
        },
        {
          "internalType": "string",
          "name": "_description",
          "type": "string"
        },
        {
          "internalType": "enum CommunityLedgerLib.Category",
          "name": "_category",
          "type": "uint8"
        },
        {
          "internalType": "uint256",
          "name": "_amount",
          "type": "uint256"
        },
        {
          "internalType": "address",
          "name": "_responsible",
          "type": "address"
        }
      ],
      "name": "createProposal",
      "outputs": [],
      "stateMutability": "nonpayable",
      "type": "function"
    },
    {
      "inputs": [
        {
          "internalType": "string",
          "name": "_proposalTitle",
          "type": "string"
        },
        {
          "internalType": "string",
          "name": "_description",
          "type": "string"
        },
        {
          "internalType": "uint256",
          "name": "_amount",
          "type": "uint256"
        },
        {
          "internalType": "address",
          "name": "_responsible",
          "type": "address"
        }
      ],
      "name": "editProposal",
      "outputs": [
        {
          "components": [
            {
              "internalType": "bytes32",
              "name": "proposalId",
              "type": "bytes32"
            },
            {
              "internalType": "string",
              "name": "title",
              "type": "string"
            },
            {
              "internalType": "enum CommunityLedgerLib.Category",
              "name": "category",
              "type": "uint8"
            },
            {
              "internalType": "enum CommunityLedgerLib.VoteStatus",
              "name": "status",
              "type": "uint8"
            }
          ],
          "internalType": "struct CommunityLedgerLib.ProposalUpdate",
          "name": "",
          "type": "tuple"
        }
      ],
      "stateMutability": "nonpayable",
      "type": "function"
    },
    {
      "inputs": [],
      "name": "getManager",
      "outputs": [
        {
          "internalType": "address",
          "name": "",
          "type": "address"
        }
      ],
      "stateMutability": "view",
      "type": "function"
    },
    {
      "inputs": [
        {
          "internalType": "string",
          "name": "title",
          "type": "string"
        }
      ],
      "name": "getProposal",
      "outputs": [
        {
          "components": [
            {
              "internalType": "string",
              "name": "title",
              "type": "string"
            },
            {
              "internalType": "string",
              "name": "description",
              "type": "string"
            },
            {
              "internalType": "enum CommunityLedgerLib.Category",
              "name": "category",
              "type": "uint8"
            },
            {
              "internalType": "uint256",
              "name": "createdAt",
              "type": "uint256"
            },
            {
              "internalType": "uint256",
              "name": "updatedAt",
              "type": "uint256"
            },
            {
              "internalType": "uint256",
              "name": "endDate",
              "type": "uint256"
            },
            {
              "internalType": "enum CommunityLedgerLib.VoteStatus",
              "name": "status",
              "type": "uint8"
            },
            {
              "internalType": "uint256",
              "name": "amount",
              "type": "uint256"
            },
            {
              "internalType": "address",
              "name": "responsible",
              "type": "address"
            }
          ],
          "internalType": "struct CommunityLedgerLib.Proposal",
          "name": "",
          "type": "tuple"
        }
      ],
      "stateMutability": "view",
      "type": "function"
    },
    {
      "inputs": [],
      "name": "getQuota",
      "outputs": [
        {
          "internalType": "uint256",
          "name": "",
          "type": "uint256"
        }
      ],
      "stateMutability": "view",
      "type": "function"
    },
    {
      "inputs": [
        {
          "internalType": "string",
          "name": "_title",
          "type": "string"
        }
      ],
      "name": "getVotes",
      "outputs": [
        {
          "internalType": "uint256",
          "name": "",
          "type": "uint256"
        }
      ],
      "stateMutability": "view",
      "type": "function"
    },
    {
      "inputs": [
        {
          "internalType": "address",
          "name": "user",
          "type": "address"
        }
      ],
      "name": "isCounselor",
      "outputs": [
        {
          "internalType": "bool",
          "name": "",
          "type": "bool"
        }
      ],
      "stateMutability": "view",
      "type": "function"
    },
    {
      "inputs": [
        {
          "internalType": "string",
          "name": "title",
          "type": "string"
        }
      ],
      "name": "isProposal",
      "outputs": [
        {
          "internalType": "bool",
          "name": "",
          "type": "bool"
        }
      ],
      "stateMutability": "view",
      "type": "function"
    },
    {
      "inputs": [
        {
          "internalType": "uint16",
          "name": "residence",
          "type": "uint16"
        }
      ],
      "name": "isResidence",
      "outputs": [
        {
          "internalType": "bool",
          "name": "",
          "type": "bool"
        }
      ],
      "stateMutability": "view",
      "type": "function"
    },
    {
      "inputs": [
        {
          "internalType": "address",
          "name": "user",
          "type": "address"
        }
      ],
      "name": "isResident",
      "outputs": [
        {
          "internalType": "bool",
          "name": "",
          "type": "bool"
        }
      ],
      "stateMutability": "view",
      "type": "function"
    },
    {
      "inputs": [
        {
          "internalType": "string",
          "name": "_title",
          "type": "string"
        }
      ],
      "name": "openVote",
      "outputs": [
        {
          "components": [
            {
              "internalType": "bytes32",
              "name": "proposalId",
              "type": "bytes32"
            },
            {
              "internalType": "string",
              "name": "title",
              "type": "string"
            },
            {
              "internalType": "enum CommunityLedgerLib.Category",
              "name": "category",
              "type": "uint8"
            },
            {
              "internalType": "enum CommunityLedgerLib.VoteStatus",
              "name": "status",
              "type": "uint8"
            }
          ],
          "internalType": "struct CommunityLedgerLib.ProposalUpdate",
          "name": "",
          "type": "tuple"
        }
      ],
      "stateMutability": "nonpayable",
      "type": "function"
    },
    {
      "inputs": [
        {
          "internalType": "uint16",
          "name": "residenceId",
          "type": "uint16"
        }
      ],
      "name": "payQuota",
      "outputs": [],
      "stateMutability": "payable",
      "type": "function"
    },
    {
      "inputs": [
        {
          "internalType": "bytes32",
          "name": "",
          "type": "bytes32"
        }
      ],
      "name": "proposals",
      "outputs": [
        {
          "internalType": "string",
          "name": "title",
          "type": "string"
        },
        {
          "internalType": "string",
          "name": "description",
          "type": "string"
        },
        {
          "internalType": "enum CommunityLedgerLib.Category",
          "name": "category",
          "type": "uint8"
        },
        {
          "internalType": "uint256",
          "name": "createdAt",
          "type": "uint256"
        },
        {
          "internalType": "uint256",
          "name": "updatedAt",
          "type": "uint256"
        },
        {
          "internalType": "uint256",
          "name": "endDate",
          "type": "uint256"
        },
        {
          "internalType": "enum CommunityLedgerLib.VoteStatus",
          "name": "status",
          "type": "uint8"
        },
        {
          "internalType": "uint256",
          "name": "amount",
          "type": "uint256"
        },
        {
          "internalType": "address",
          "name": "responsible",
          "type": "address"
        }
      ],
      "stateMutability": "view",
      "type": "function"
    },
    {
      "inputs": [
        {
          "internalType": "string",
          "name": "_title",
          "type": "string"
        }
      ],
      "name": "removeProposal",
      "outputs": [
        {
          "components": [
            {
              "internalType": "bytes32",
              "name": "proposalId",
              "type": "bytes32"
            },
            {
              "internalType": "string",
              "name": "title",
              "type": "string"
            },
            {
              "internalType": "enum CommunityLedgerLib.Category",
              "name": "category",
              "type": "uint8"
            },
            {
              "internalType": "enum CommunityLedgerLib.VoteStatus",
              "name": "status",
              "type": "uint8"
            }
          ],
          "internalType": "struct CommunityLedgerLib.ProposalUpdate",
          "name": "",
          "type": "tuple"
        }
      ],
      "stateMutability": "nonpayable",
      "type": "function"
    },
    {
      "inputs": [
        {
          "internalType": "address",
          "name": "resident",
          "type": "address"
        }
      ],
      "name": "removeResident",
      "outputs": [],
      "stateMutability": "nonpayable",
      "type": "function"
    },
    {
      "inputs": [
        {
          "internalType": "address",
          "name": "",
          "type": "address"
        }
      ],
      "name": "s_counselors",
      "outputs": [
        {
          "internalType": "bool",
          "name": "",
          "type": "bool"
        }
      ],
      "stateMutability": "view",
      "type": "function"
    },
    {
      "inputs": [],
      "name": "s_manager",
      "outputs": [
        {
          "internalType": "address",
          "name": "",
          "type": "address"
        }
      ],
      "stateMutability": "view",
      "type": "function"
    },
    {
      "inputs": [],
      "name": "s_monthlyQuota",
      "outputs": [
        {
          "internalType": "uint256",
          "name": "",
          "type": "uint256"
        }
      ],
      "stateMutability": "view",
      "type": "function"
    },
    {
      "inputs": [
        {
          "internalType": "uint16",
          "name": "",
          "type": "uint16"
        }
      ],
      "name": "s_payments",
      "outputs": [
        {
          "internalType": "uint256",
          "name": "",
          "type": "uint256"
        }
      ],
      "stateMutability": "view",
      "type": "function"
    },
    {
      "inputs": [
        {
          "internalType": "uint16",
          "name": "",
          "type": "uint16"
        }
      ],
      "name": "s_residences",
      "outputs": [
        {
          "internalType": "bool",
          "name": "",
          "type": "bool"
        }
      ],
      "stateMutability": "view",
      "type": "function"
    },
    {
      "inputs": [
        {
          "internalType": "address",
          "name": "",
          "type": "address"
        }
      ],
      "name": "s_residents",
      "outputs": [
        {
          "internalType": "uint16",
          "name": "",
          "type": "uint16"
        }
      ],
      "stateMutability": "view",
      "type": "function"
    },
    {
      "inputs": [
        {
          "internalType": "address",
          "name": "resident",
          "type": "address"
        },
        {
          "internalType": "bool",
          "name": "isEntering",
          "type": "bool"
        }
      ],
      "name": "setCounselor",
      "outputs": [],
      "stateMutability": "nonpayable",
      "type": "function"
    },
    {
      "inputs": [
        {
          "internalType": "string",
          "name": "_proposalTitle",
          "type": "string"
        },
        {
          "internalType": "uint256",
          "name": "_amount",
          "type": "uint256"
        }
      ],
      "name": "transfer",
      "outputs": [
        {
          "components": [
            {
              "internalType": "address",
              "name": "to",
              "type": "address"
            },
            {
              "internalType": "uint256",
              "name": "amount",
              "type": "uint256"
            },
            {
              "internalType": "string",
              "name": "proposalTitle",
              "type": "string"
            }
          ],
          "internalType": "struct CommunityLedgerLib.TransferReceipt",
          "name": "",
          "type": "tuple"
        }
      ],
      "stateMutability": "nonpayable",
      "type": "function"
    },
    {
      "inputs": [
        {
          "internalType": "string",
          "name": "_title",
          "type": "string"
        },
        {
          "internalType": "enum CommunityLedgerLib.Options",
          "name": "_option",
          "type": "uint8"
        }
      ],
      "name": "vote",
      "outputs": [],
      "stateMutability": "nonpayable",
      "type": "function"
    },
    {
      "inputs": [
        {
          "internalType": "bytes32",
          "name": "",
          "type": "bytes32"
        },
        {
          "internalType": "uint256",
          "name": "",
          "type": "uint256"
        }
      ],
      "name": "votes",
      "outputs": [
        {
          "internalType": "address",
          "name": "voter",
          "type": "address"
        },
        {
          "internalType": "uint16",
          "name": "residence",
          "type": "uint16"
        },
        {
          "internalType": "enum CommunityLedgerLib.Options",
          "name": "option",
          "type": "uint8"
        },
        {
          "internalType": "uint256",
          "name": "createdAt",
          "type": "uint256"
        }
      ],
      "stateMutability": "view",
      "type": "function"
    }
  ],
  "bytecode": "0x6080604052662386f26fc1000060015534801561001b57600080fd5b50336000806101000a81548173ffffffffffffffffffffffffffffffffffffffff021916908373ffffffffffffffffffffffffffffffffffffffff1602179055506000600190505b60188161ffff16116100f6576000600190505b60048160ff16116100e2576001600260008360ff166064866100989190610139565b6100a29190610176565b61ffff1661ffff16815260200190815260200160002060006101000a81548160ff02191690831515021790555080806100da906101b9565b915050610076565b5080806100ee906101e2565b915050610063565b5061020c565b600061ffff82169050919050565b7f4e487b7100000000000000000000000000000000000000000000000000000000600052601160045260246000fd5b6000610144826100fc565b915061014f836100fc565b925082820261015d816100fc565b915080821461016f5761016e61010a565b5b5092915050565b6000610181826100fc565b915061018c836100fc565b9250828201905061ffff8111156101a6576101a561010a565b5b92915050565b600060ff82169050919050565b60006101c4826101ac565b915060ff82036101d7576101d661010a565b5b600182019050919050565b60006101ed826100fc565b915061ffff82036102015761020061010a565b5b600182019050919050565b614b478061021b6000396000f3fe60806040526004361061019c5760003560e01c806368aca335116100ec57806396fa1def1161008a578063bbcbdc6111610064578063bbcbdc611461068d578063c12e8063146106ca578063d281a12e146106e6578063d5009584146107235761019c565b806396fa1def146105fe578063a24bb20514610627578063b1583546146106645761019c565b8063805265e5116100c6578063805265e51461053257806386ac0f671461056f5780638aee99a91461059857806390ca27f3146105d55761019c565b806368aca3351461048d5780636974a0cb146104ca57806375634c90146105075761019c565b80631643191e1161015957806325d3a09d1161013357806325d3a09d146103a557806332ed5b12146103e2578063597de98714610427578063607af65a146104505761019c565b80631643191e146103125780631b8c3b801461033d5780631df8ba771461037a5761019c565b806305ce92b1146101a1578063065ab6d6146101de5780630847a4fb1461021b5780630e2523e21461025b57806311da65c61461029857806312cb70c7146102d5575b600080fd5b3480156101ad57600080fd5b506101c860048036038101906101c3919061308b565b61074e565b6040516101d591906130d3565b60405180910390f35b3480156101ea57600080fd5b506102056004803603810190610200919061308b565b61076e565b60405161021291906130d3565b60405180910390f35b34801561022757600080fd5b50610242600480360381019061023d919061315a565b6107c4565b604051610252949392919061324c565b60405180910390f35b34801561026757600080fd5b50610282600480360381019061027d91906133d7565b61084c565b60405161028f91906130d3565b60405180910390f35b3480156102a457600080fd5b506102bf60048036038101906102ba91906133d7565b610864565b6040516102cc91906135a1565b60405180910390f35b3480156102e157600080fd5b506102fc60048036038101906102f791906135c3565b610a76565b604051610309919061368d565b60405180910390f35b34801561031e57600080fd5b50610327610d97565b60405161033491906136af565b60405180910390f35b34801561034957600080fd5b50610364600480360381019061035f91906136f6565b610d9d565b60405161037191906136af565b60405180910390f35b34801561038657600080fd5b5061038f610db5565b60405161039c91906136af565b60405180910390f35b3480156103b157600080fd5b506103cc60048036038101906103c791906133d7565b610dbf565b6040516103d991906137ef565b60405180910390f35b3480156103ee57600080fd5b5061040960048036038101906104049190613811565b611012565b60405161041e999897969594939291906138a6565b60405180910390f35b34801561043357600080fd5b5061044e6004803603810190610449919061308b565b6111aa565b005b34801561045c57600080fd5b50610477600480360381019061047291906136f6565b6112d4565b60405161048491906130d3565b60405180910390f35b34801561049957600080fd5b506104b460048036038101906104af919061308b565b6112f4565b6040516104c191906130d3565b60405180910390f35b3480156104d657600080fd5b506104f160048036038101906104ec9190613941565b611351565b6040516104fe91906135a1565b60405180910390f35b34801561051357600080fd5b5061051c6115ed565b60405161052991906139e0565b60405180910390f35b34801561053e57600080fd5b50610559600480360381019061055491906133d7565b611611565b60405161056691906136af565b60405180910390f35b34801561057b57600080fd5b5061059660048036038101906105919190613a20565b61163d565b005b3480156105a457600080fd5b506105bf60048036038101906105ba919061308b565b611ab6565b6040516105cc9190613ad3565b60405180910390f35b3480156105e157600080fd5b506105fc60048036038101906105f79190613b13565b611ad7565b005b34801561060a57600080fd5b5061062560048036038101906106209190613b9b565b6120fa565b005b34801561063357600080fd5b5061064e600480360381019061064991906133d7565b6122f8565b60405161065b91906135a1565b60405180910390f35b34801561067057600080fd5b5061068b60048036038101906106869190613bdb565b612928565b005b34801561069957600080fd5b506106b460048036038101906106af91906133d7565b612add565b6040516106c191906135a1565b60405180910390f35b6106e460048036038101906106df91906136f6565b612d3a565b005b3480156106f257600080fd5b5061070d600480360381019061070891906136f6565b612e55565b60405161071a91906130d3565b60405180910390f35b34801561072f57600080fd5b50610738612e87565b60405161074591906139e0565b60405180910390f35b60046020528060005260406000206000915054906101000a900460ff1681565b6000600460008373ffffffffffffffffffffffffffffffffffffffff1673ffffffffffffffffffffffffffffffffffffffff16815260200190815260200160002060009054906101000a900460ff169050919050565b600760205281600052604060002081815481106107e057600080fd5b9060005260206000209060020201600091509150508060000160009054906101000a900473ffffffffffffffffffffffffffffffffffffffff16908060000160149054906101000a900461ffff16908060000160169054906101000a900460ff16908060010154905084565b60008061085883610dbf565b60600151119050919050565b61086c612eb0565b60008054906101000a900473ffffffffffffffffffffffffffffffffffffffff1673ffffffffffffffffffffffffffffffffffffffff163273ffffffffffffffffffffffffffffffffffffffff16146108fa576040517f08c379a00000000000000000000000000000000000000000000000000000000081526004016108f190613c8d565b60405180910390fd5b600061090583610dbf565b9050600081606001511161094e576040517f08c379a000000000000000000000000000000000000000000000000000000000815260040161094590613cf9565b60405180910390fd5b60006005811115610962576109616131c6565b5b8160c001516005811115610979576109786131c6565b5b146109b9576040517f08c379a00000000000000000000000000000000000000000000000000000000081526004016109b090613d65565b60405180910390fd5b60008380519060200120905060016006600083815260200190815260200160002060060160006101000a81548160ff021916908360058111156109ff576109fe6131c6565b5b021790555042600660008381526020019081526020016000206004018190555060405180608001604052808281526020018360000151815260200183604001516003811115610a5157610a506131c6565b5b815260200160016005811115610a6a57610a696131c6565b5b81525092505050919050565b610a7e612eff565b60008054906101000a900473ffffffffffffffffffffffffffffffffffffffff1673ffffffffffffffffffffffffffffffffffffffff163273ffffffffffffffffffffffffffffffffffffffff1614610b0c576040517f08c379a0000000000000000000000000000000000000000000000000000000008152600401610b0390613c8d565b60405180910390fd5b81471015610b4f576040517f08c379a0000000000000000000000000000000000000000000000000000000008152600401610b4690613dd1565b60405180910390fd5b6000610b5a84610dbf565b90506000816060015111610ba3576040517f08c379a0000000000000000000000000000000000000000000000000000000008152600401610b9a90613cf9565b60405180910390fd5b60026005811115610bb757610bb66131c6565b5b8160c001516005811115610bce57610bcd6131c6565b5b14610c0e576040517f08c379a0000000000000000000000000000000000000000000000000000000008152600401610c0590613e3d565b60405180910390fd5b60016003811115610c2257610c216131c6565b5b81604001516003811115610c3957610c386131c6565b5b14610c79576040517f08c379a0000000000000000000000000000000000000000000000000000000008152600401610c7090613ecf565b60405180910390fd5b828160e001511015610cc0576040517f08c379a0000000000000000000000000000000000000000000000000000000008152600401610cb790613f61565b60405180910390fd5b80610100015173ffffffffffffffffffffffffffffffffffffffff166108fc849081150290604051600060405180830381858888f19350505050158015610d0b573d6000803e3d6000fd5b5060008480519060200120905060056006600083815260200190815260200160002060060160006101000a81548160ff02191690836005811115610d5257610d516131c6565b5b0217905550604051806060016040528083610100015173ffffffffffffffffffffffffffffffffffffffff168152602001858152602001868152509250505092915050565b60015481565b60056020528060005260406000206000915090505481565b6000600154905090565b610dc7612f36565b6000828051906020012090506006600082815260200190815260200160002060405180610120016040529081600082018054610e0290613fb0565b80601f0160208091040260200160405190810160405280929190818152602001828054610e2e90613fb0565b8015610e7b5780601f10610e5057610100808354040283529160200191610e7b565b820191906000526020600020905b815481529060010190602001808311610e5e57829003601f168201915b50505050508152602001600182018054610e9490613fb0565b80601f0160208091040260200160405190810160405280929190818152602001828054610ec090613fb0565b8015610f0d5780601f10610ee257610100808354040283529160200191610f0d565b820191906000526020600020905b815481529060010190602001808311610ef057829003601f168201915b505050505081526020016002820160009054906101000a900460ff166003811115610f3b57610f3a6131c6565b5b6003811115610f4d57610f4c6131c6565b5b81526020016003820154815260200160048201548152602001600582015481526020016006820160009054906101000a900460ff166005811115610f9457610f936131c6565b5b6005811115610fa657610fa56131c6565b5b8152602001600782015481526020016008820160009054906101000a900473ffffffffffffffffffffffffffffffffffffffff1673ffffffffffffffffffffffffffffffffffffffff1673ffffffffffffffffffffffffffffffffffffffff1681525050915050919050565b600660205280600052604060002060009150905080600001805461103590613fb0565b80601f016020809104026020016040519081016040528092919081815260200182805461106190613fb0565b80156110ae5780601f10611083576101008083540402835291602001916110ae565b820191906000526020600020905b81548152906001019060200180831161109157829003601f168201915b5050505050908060010180546110c390613fb0565b80601f01602080910402602001604051908101604052809291908181526020018280546110ef90613fb0565b801561113c5780601f106111115761010080835404028352916020019161113c565b820191906000526020600020905b81548152906001019060200180831161111f57829003601f168201915b5050505050908060020160009054906101000a900460ff16908060030154908060040154908060050154908060060160009054906101000a900460ff16908060070154908060080160009054906101000a900473ffffffffffffffffffffffffffffffffffffffff16905089565b60008054906101000a900473ffffffffffffffffffffffffffffffffffffffff1673ffffffffffffffffffffffffffffffffffffffff163273ffffffffffffffffffffffffffffffffffffffff1614611238576040517f08c379a000000000000000000000000000000000000000000000000000000000815260040161122f90613c8d565b60405180910390fd5b6112418161076e565b15611281576040517f08c379a00000000000000000000000000000000000000000000000000000000081526004016112789061402d565b60405180910390fd5b600360008273ffffffffffffffffffffffffffffffffffffffff1673ffffffffffffffffffffffffffffffffffffffff16815260200190815260200160002060006101000a81549061ffff021916905550565b60026020528060005260406000206000915054906101000a900460ff1681565b600080600360008473ffffffffffffffffffffffffffffffffffffffff1673ffffffffffffffffffffffffffffffffffffffff16815260200190815260200160002060009054906101000a900461ffff1661ffff16119050919050565b611359612eb0565b60008054906101000a900473ffffffffffffffffffffffffffffffffffffffff1673ffffffffffffffffffffffffffffffffffffffff163273ffffffffffffffffffffffffffffffffffffffff16146113e7576040517f08c379a00000000000000000000000000000000000000000000000000000000081526004016113de90613c8d565b60405180910390fd5b60006113f286610dbf565b9050600081606001511161143b576040517f08c379a000000000000000000000000000000000000000000000000000000000815260040161143290613cf9565b60405180910390fd5b6000600581111561144f5761144e6131c6565b5b8160c001516005811115611466576114656131c6565b5b146114a6576040517f08c379a000000000000000000000000000000000000000000000000000000000815260040161149d906140bf565b60405180910390fd5b6000868051906020012090506000865111156114e157856006600083815260200190815260200160002060010190816114df919061428b565b505b6000851115611506578460066000838152602001908152602001600020600701819055505b600073ffffffffffffffffffffffffffffffffffffffff168473ffffffffffffffffffffffffffffffffffffffff161461159057836006600083815260200190815260200160002060080160006101000a81548173ffffffffffffffffffffffffffffffffffffffff021916908373ffffffffffffffffffffffffffffffffffffffff1602179055505b604051806080016040528082815260200183600001518152602001836040015160038111156115c2576115c16131c6565b5b81526020018360c0015160058111156115de576115dd6131c6565b5b81525092505050949350505050565b60008054906101000a900473ffffffffffffffffffffffffffffffffffffffff1681565b600080828051906020012090506007600082815260200190815260200160002080549050915050919050565b60008054906101000a900473ffffffffffffffffffffffffffffffffffffffff1673ffffffffffffffffffffffffffffffffffffffff163273ffffffffffffffffffffffffffffffffffffffff16148061169c575061169b326112f4565b5b6116db576040517f08c379a00000000000000000000000000000000000000000000000000000000081526004016116d2906143cf565b60405180910390fd5b60008054906101000a900473ffffffffffffffffffffffffffffffffffffffff1673ffffffffffffffffffffffffffffffffffffffff163273ffffffffffffffffffffffffffffffffffffffff1614806117aa575062278d0060056000600360003273ffffffffffffffffffffffffffffffffffffffff1673ffffffffffffffffffffffffffffffffffffffff16815260200190815260200160002060009054906101000a900461ffff1661ffff1661ffff168152602001908152602001600020546117a7919061441e565b42105b6117e9576040517f08c379a00000000000000000000000000000000000000000000000000000000081526004016117e0906144c4565b60405180910390fd5b6117f28561084c565b15611832576040517f08c379a000000000000000000000000000000000000000000000000000000000815260040161182990614530565b60405180910390fd5b60008211156118d2576002600381111561184f5761184e6131c6565b5b836003811115611862576118616131c6565b5b148061189257506001600381111561187d5761187c6131c6565b5b8360038111156118905761188f6131c6565b5b145b6118d1576040517f08c379a00000000000000000000000000000000000000000000000000000000081526004016118c89061459c565b60405180910390fd5b5b60006040518061012001604052808781526020018681526020018560038111156118ff576118fe6131c6565b5b815260200142815260200160008152602001600081526020016000600581111561192c5761192b6131c6565b5b8152602001848152602001600073ffffffffffffffffffffffffffffffffffffffff168473ffffffffffffffffffffffffffffffffffffffff16036119715732611973565b835b73ffffffffffffffffffffffffffffffffffffffff168152509050600086805190602001209050816006600083815260200190815260200160002060008201518160000190816119c3919061428b565b5060208201518160010190816119d9919061428b565b5060408201518160020160006101000a81548160ff02191690836003811115611a0557611a046131c6565b5b0217905550606082015181600301556080820151816004015560a0820151816005015560c08201518160060160006101000a81548160ff02191690836005811115611a5357611a526131c6565b5b021790555060e082015181600701556101008201518160080160006101000a81548173ffffffffffffffffffffffffffffffffffffffff021916908373ffffffffffffffffffffffffffffffffffffffff16021790555090505050505050505050565b60036020528060005260406000206000915054906101000a900461ffff1681565b60008054906101000a900473ffffffffffffffffffffffffffffffffffffffff1673ffffffffffffffffffffffffffffffffffffffff163273ffffffffffffffffffffffffffffffffffffffff161480611b365750611b35326112f4565b5b611b75576040517f08c379a0000000000000000000000000000000000000000000000000000000008152600401611b6c906143cf565b60405180910390fd5b60008054906101000a900473ffffffffffffffffffffffffffffffffffffffff1673ffffffffffffffffffffffffffffffffffffffff163273ffffffffffffffffffffffffffffffffffffffff161480611c44575062278d0060056000600360003273ffffffffffffffffffffffffffffffffffffffff1673ffffffffffffffffffffffffffffffffffffffff16815260200190815260200160002060009054906101000a900461ffff1661ffff1661ffff16815260200190815260200160002054611c41919061441e565b42105b611c83576040517f08c379a0000000000000000000000000000000000000000000000000000000008152600401611c7a906144c4565b60405180910390fd5b60006003811115611c9757611c966131c6565b5b816003811115611caa57611ca96131c6565b5b03611cea576040517f08c379a0000000000000000000000000000000000000000000000000000000008152600401611ce190614608565b60405180910390fd5b6000611cf583610dbf565b90506000816060015111611d3e576040517f08c379a0000000000000000000000000000000000000000000000000000000008152600401611d3590613cf9565b60405180910390fd5b60016005811115611d5257611d516131c6565b5b8160c001516005811115611d6957611d686131c6565b5b14611da9576040517f08c379a0000000000000000000000000000000000000000000000000000000008152600401611da090614674565b60405180910390fd5b6000600360003273ffffffffffffffffffffffffffffffffffffffff1673ffffffffffffffffffffffffffffffffffffffff16815260200190815260200160002060009054906101000a900461ffff169050600084805190602001209050600060076000838152602001908152602001600020805480602002602001604051908101604052809291908181526020016000905b82821015611f2957838290600052602060002090600202016040518060800160405290816000820160009054906101000a900473ffffffffffffffffffffffffffffffffffffffff1673ffffffffffffffffffffffffffffffffffffffff1673ffffffffffffffffffffffffffffffffffffffff1681526020016000820160149054906101000a900461ffff1661ffff1661ffff1681526020016000820160169054906101000a900460ff166003811115611efa57611ef96131c6565b5b6003811115611f0c57611f0b6131c6565b5b815260200160018201548152505081526020019060010190611e3c565b50505050905060005b81518160ff161015611fbc578361ffff16828260ff1681518110611f5957611f58614694565b5b60200260200101516020015161ffff1603611fa9576040517f08c379a0000000000000000000000000000000000000000000000000000000008152600401611fa09061470f565b60405180910390fd5b8080611fb49061473c565b915050611f32565b50600060405180608001604052803273ffffffffffffffffffffffffffffffffffffffff1681526020018561ffff168152602001876003811115612003576120026131c6565b5b81526020014281525090506007600084815260200190815260200160002081908060018154018082558091505060019003906000526020600020906002020160009091909190915060008201518160000160006101000a81548173ffffffffffffffffffffffffffffffffffffffff021916908373ffffffffffffffffffffffffffffffffffffffff16021790555060208201518160000160146101000a81548161ffff021916908361ffff16021790555060408201518160000160166101000a81548160ff021916908360038111156120e0576120df6131c6565b5b021790555060608201518160010155505050505050505050565b60008054906101000a900473ffffffffffffffffffffffffffffffffffffffff1673ffffffffffffffffffffffffffffffffffffffff163273ffffffffffffffffffffffffffffffffffffffff1614612188576040517f08c379a000000000000000000000000000000000000000000000000000000000815260040161217f90613c8d565b60405180910390fd5b81600073ffffffffffffffffffffffffffffffffffffffff168173ffffffffffffffffffffffffffffffffffffffff16036121f8576040517f08c379a00000000000000000000000000000000000000000000000000000000081526004016121ef906147b1565b60405180910390fd5b81156122a357612207836112f4565b612246576040517f08c379a000000000000000000000000000000000000000000000000000000000815260040161223d9061481d565b60405180910390fd5b6001600460008573ffffffffffffffffffffffffffffffffffffffff1673ffffffffffffffffffffffffffffffffffffffff16815260200190815260200160002060006101000a81548160ff0219169083151502179055506122f3565b600460008473ffffffffffffffffffffffffffffffffffffffff1673ffffffffffffffffffffffffffffffffffffffff16815260200190815260200160002060006101000a81549060ff02191690555b505050565b612300612eb0565b60008054906101000a900473ffffffffffffffffffffffffffffffffffffffff1673ffffffffffffffffffffffffffffffffffffffff163273ffffffffffffffffffffffffffffffffffffffff161461238e576040517f08c379a000000000000000000000000000000000000000000000000000000000815260040161238590613c8d565b60405180910390fd5b600061239983610dbf565b905060008160600151116123e2576040517f08c379a00000000000000000000000000000000000000000000000000000000081526004016123d990613cf9565b60405180910390fd5b600160058111156123f6576123f56131c6565b5b8160c00151600581111561240d5761240c6131c6565b5b1461244d576040517f08c379a000000000000000000000000000000000000000000000000000000000815260040161244490614674565b60405180910390fd5b60006005905060008060006001600381111561246c5761246b6131c6565b5b85604001516003811115612483576124826131c6565b5b0361249157600a9350612500565b6003808111156124a4576124a36131c6565b5b856040015160038111156124bb576124ba6131c6565b5b036124c957600f93506124ff565b600260038111156124dd576124dc6131c6565b5b856040015160038111156124f4576124f36131c6565b5b036124fe57601393505b5b5b8360ff1661250d88611611565b101561254e576040517f08c379a000000000000000000000000000000000000000000000000000000000815260040161254590614889565b60405180910390fd5b600087805190602001209050600060076000838152602001908152602001600020805480602002602001604051908101604052809291908181526020016000905b8282101561267c57838290600052602060002090600202016040518060800160405290816000820160009054906101000a900473ffffffffffffffffffffffffffffffffffffffff1673ffffffffffffffffffffffffffffffffffffffff1673ffffffffffffffffffffffffffffffffffffffff1681526020016000820160149054906101000a900461ffff1661ffff1661ffff1681526020016000820160169054906101000a900460ff16600381111561264d5761264c6131c6565b5b600381111561265f5761265e6131c6565b5b81526020016001820154815250508152602001906001019061258f565b50505050905060005b81518160ff16101561277457600160038111156126a5576126a46131c6565b5b828260ff16815181106126bb576126ba614694565b5b60200260200101516040015160038111156126d9576126d86131c6565b5b036126f15785806126e99061473c565b965050612761565b60026003811115612705576127046131c6565b5b828260ff168151811061271b5761271a614694565b5b6020026020010151604001516003811115612739576127386131c6565b5b036127515784806127499061473c565b955050612760565b838061275c9061473c565b9450505b5b808061276c9061473c565b915050612685565b5060008460ff168660ff161161278b57600361278e565b60025b9050806006600085815260200190815260200160002060060160006101000a81548160ff021916908360058111156127c9576127c86131c6565b5b0217905550426006600085815260200190815260200160002060050181905550600260058111156127fd576127fc6131c6565b5b8160058111156128105761280f6131c6565b5b036128cc5760026003811115612829576128286131c6565b5b886040015160038111156128405761283f6131c6565b5b03612855578760e001516001819055506128cb565b600380811115612868576128676131c6565b5b8860400151600381111561287f5761287e6131c6565b5b036128ca578761010001516000806101000a81548173ffffffffffffffffffffffffffffffffffffffff021916908373ffffffffffffffffffffffffffffffffffffffff1602179055505b5b5b604051806080016040528084815260200189600001518152602001896040015160038111156128fe576128fd6131c6565b5b8152602001826005811115612916576129156131c6565b5b81525098505050505050505050919050565b60008054906101000a900473ffffffffffffffffffffffffffffffffffffffff1673ffffffffffffffffffffffffffffffffffffffff163273ffffffffffffffffffffffffffffffffffffffff16148061298757506129863261076e565b5b6129c6576040517f08c379a00000000000000000000000000000000000000000000000000000000081526004016129bd9061491b565b60405180910390fd5b81600073ffffffffffffffffffffffffffffffffffffffff168173ffffffffffffffffffffffffffffffffffffffff1603612a36576040517f08c379a0000000000000000000000000000000000000000000000000000000008152600401612a2d906147b1565b60405180910390fd5b612a3f82612e55565b612a7e576040517f08c379a0000000000000000000000000000000000000000000000000000000008152600401612a7590614987565b60405180910390fd5b81600360008573ffffffffffffffffffffffffffffffffffffffff1673ffffffffffffffffffffffffffffffffffffffff16815260200190815260200160002060006101000a81548161ffff021916908361ffff160217905550505050565b612ae5612eb0565b60008054906101000a900473ffffffffffffffffffffffffffffffffffffffff1673ffffffffffffffffffffffffffffffffffffffff163273ffffffffffffffffffffffffffffffffffffffff1614612b73576040517f08c379a0000000000000000000000000000000000000000000000000000000008152600401612b6a90613c8d565b60405180910390fd5b6000612b7e83610dbf565b90506000816060015111612bc7576040517f08c379a0000000000000000000000000000000000000000000000000000000008152600401612bbe90613cf9565b60405180910390fd5b60006005811115612bdb57612bda6131c6565b5b8160c001516005811115612bf257612bf16131c6565b5b14612c32576040517f08c379a0000000000000000000000000000000000000000000000000000000008152600401612c2990614a19565b60405180910390fd5b6000838051906020012090506006600082815260200190815260200160002060008082016000612c629190612fbc565b600182016000612c729190612fbc565b6002820160006101000a81549060ff02191690556003820160009055600482016000905560058201600090556006820160006101000a81549060ff021916905560078201600090556008820160006101000a81549073ffffffffffffffffffffffffffffffffffffffff0219169055505060405180608001604052808281526020018360000151815260200183604001516003811115612d1557612d146131c6565b5b815260200160046005811115612d2e57612d2d6131c6565b5b81525092505050919050565b612d4381612e55565b612d82576040517f08c379a0000000000000000000000000000000000000000000000000000000008152600401612d7990614987565b60405180910390fd5b600154341015612dc7576040517f08c379a0000000000000000000000000000000000000000000000000000000008152600401612dbe90614a85565b60405180910390fd5b62278d00600560008361ffff1661ffff16815260200190815260200160002054612df1919061441e565b4211612e32576040517f08c379a0000000000000000000000000000000000000000000000000000000008152600401612e2990614af1565b60405180910390fd5b42600560008361ffff1661ffff1681526020019081526020016000208190555050565b6000600260008361ffff1661ffff16815260200190815260200160002060009054906101000a900460ff169050919050565b60008060009054906101000a900473ffffffffffffffffffffffffffffffffffffffff16905090565b6040518060800160405280600080191681526020016060815260200160006003811115612ee057612edf6131c6565b5b815260200160006005811115612ef957612ef86131c6565b5b81525090565b6040518060600160405280600073ffffffffffffffffffffffffffffffffffffffff16815260200160008152602001606081525090565b604051806101200160405280606081526020016060815260200160006003811115612f6457612f636131c6565b5b815260200160008152602001600081526020016000815260200160006005811115612f9257612f916131c6565b5b815260200160008152602001600073ffffffffffffffffffffffffffffffffffffffff1681525090565b508054612fc890613fb0565b6000825580601f10612fda5750612ff9565b601f016020900490600052602060002090810190612ff89190612ffc565b5b50565b5b80821115613015576000816000905550600101612ffd565b5090565b6000604051905090565b600080fd5b600080fd5b600073ffffffffffffffffffffffffffffffffffffffff82169050919050565b60006130588261302d565b9050919050565b6130688161304d565b811461307357600080fd5b50565b6000813590506130858161305f565b92915050565b6000602082840312156130a1576130a0613023565b5b60006130af84828501613076565b91505092915050565b60008115159050919050565b6130cd816130b8565b82525050565b60006020820190506130e860008301846130c4565b92915050565b6000819050919050565b613101816130ee565b811461310c57600080fd5b50565b60008135905061311e816130f8565b92915050565b6000819050919050565b61313781613124565b811461314257600080fd5b50565b6000813590506131548161312e565b92915050565b6000806040838503121561317157613170613023565b5b600061317f8582860161310f565b925050602061319085828601613145565b9150509250929050565b6131a38161304d565b82525050565b600061ffff82169050919050565b6131c0816131a9565b82525050565b7f4e487b7100000000000000000000000000000000000000000000000000000000600052602160045260246000fd5b60048110613206576132056131c6565b5b50565b6000819050613217826131f5565b919050565b600061322782613209565b9050919050565b6132378161321c565b82525050565b61324681613124565b82525050565b6000608082019050613261600083018761319a565b61326e60208301866131b7565b61327b604083018561322e565b613288606083018461323d565b95945050505050565b600080fd5b600080fd5b6000601f19601f8301169050919050565b7f4e487b7100000000000000000000000000000000000000000000000000000000600052604160045260246000fd5b6132e48261329b565b810181811067ffffffffffffffff82111715613303576133026132ac565b5b80604052505050565b6000613316613019565b905061332282826132db565b919050565b600067ffffffffffffffff821115613342576133416132ac565b5b61334b8261329b565b9050602081019050919050565b82818337600083830152505050565b600061337a61337584613327565b61330c565b90508281526020810184848401111561339657613395613296565b5b6133a1848285613358565b509392505050565b600082601f8301126133be576133bd613291565b5b81356133ce848260208601613367565b91505092915050565b6000602082840312156133ed576133ec613023565b5b600082013567ffffffffffffffff81111561340b5761340a613028565b5b613417848285016133a9565b91505092915050565b613429816130ee565b82525050565b600081519050919050565b600082825260208201905092915050565b60005b8381101561346957808201518184015260208101905061344e565b60008484015250505050565b60006134808261342f565b61348a818561343a565b935061349a81856020860161344b565b6134a38161329b565b840191505092915050565b600481106134bf576134be6131c6565b5b50565b60008190506134d0826134ae565b919050565b60006134e0826134c2565b9050919050565b6134f0816134d5565b82525050565b60068110613507576135066131c6565b5b50565b6000819050613518826134f6565b919050565b60006135288261350a565b9050919050565b6135388161351d565b82525050565b60006080830160008301516135566000860182613420565b506020830151848203602086015261356e8282613475565b915050604083015161358360408601826134e7565b506060830151613596606086018261352f565b508091505092915050565b600060208201905081810360008301526135bb818461353e565b905092915050565b600080604083850312156135da576135d9613023565b5b600083013567ffffffffffffffff8111156135f8576135f7613028565b5b613604858286016133a9565b925050602061361585828601613145565b9150509250929050565b6136288161304d565b82525050565b61363781613124565b82525050565b6000606083016000830151613655600086018261361f565b506020830151613668602086018261362e565b50604083015184820360408601526136808282613475565b9150508091505092915050565b600060208201905081810360008301526136a7818461363d565b905092915050565b60006020820190506136c4600083018461323d565b92915050565b6136d3816131a9565b81146136de57600080fd5b50565b6000813590506136f0816136ca565b92915050565b60006020828403121561370c5761370b613023565b5b600061371a848285016136e1565b91505092915050565b60006101208301600083015184820360008601526137418282613475565b9150506020830151848203602086015261375b8282613475565b915050604083015161377060408601826134e7565b506060830151613783606086018261362e565b506080830151613796608086018261362e565b5060a08301516137a960a086018261362e565b5060c08301516137bc60c086018261352f565b5060e08301516137cf60e086018261362e565b506101008301516137e461010086018261361f565b508091505092915050565b600060208201905081810360008301526138098184613723565b905092915050565b60006020828403121561382757613826613023565b5b60006138358482850161310f565b91505092915050565b600082825260208201905092915050565b600061385a8261342f565b613864818561383e565b935061387481856020860161344b565b61387d8161329b565b840191505092915050565b613891816134d5565b82525050565b6138a08161351d565b82525050565b60006101208201905081810360008301526138c1818c61384f565b905081810360208301526138d5818b61384f565b90506138e4604083018a613888565b6138f1606083018961323d565b6138fe608083018861323d565b61390b60a083018761323d565b61391860c0830186613897565b61392560e083018561323d565b61393361010083018461319a565b9a9950505050505050505050565b6000806000806080858703121561395b5761395a613023565b5b600085013567ffffffffffffffff81111561397957613978613028565b5b613985878288016133a9565b945050602085013567ffffffffffffffff8111156139a6576139a5613028565b5b6139b2878288016133a9565b93505060406139c387828801613145565b92505060606139d487828801613076565b91505092959194509250565b60006020820190506139f5600083018461319a565b92915050565b60048110613a0857600080fd5b50565b600081359050613a1a816139fb565b92915050565b600080600080600060a08688031215613a3c57613a3b613023565b5b600086013567ffffffffffffffff811115613a5a57613a59613028565b5b613a66888289016133a9565b955050602086013567ffffffffffffffff811115613a8757613a86613028565b5b613a93888289016133a9565b9450506040613aa488828901613a0b565b9350506060613ab588828901613145565b9250506080613ac688828901613076565b9150509295509295909350565b6000602082019050613ae860008301846131b7565b92915050565b60048110613afb57600080fd5b50565b600081359050613b0d81613aee565b92915050565b60008060408385031215613b2a57613b29613023565b5b600083013567ffffffffffffffff811115613b4857613b47613028565b5b613b54858286016133a9565b9250506020613b6585828601613afe565b9150509250929050565b613b78816130b8565b8114613b8357600080fd5b50565b600081359050613b9581613b6f565b92915050565b60008060408385031215613bb257613bb1613023565b5b6000613bc085828601613076565b9250506020613bd185828601613b86565b9150509250929050565b60008060408385031215613bf257613bf1613023565b5b6000613c0085828601613076565b9250506020613c11858286016136e1565b9150509250929050565b7f4f6e6c79206d616e616765722063616e2063616c6c20746869732066756e637460008201527f696f6e0000000000000000000000000000000000000000000000000000000000602082015250565b6000613c7760238361383e565b9150613c8282613c1b565b604082019050919050565b60006020820190508181036000830152613ca681613c6a565b9050919050565b7f50726f706f73616c20646f6573206e6f74206578697374000000000000000000600082015250565b6000613ce360178361383e565b9150613cee82613cad565b602082019050919050565b60006020820190508181036000830152613d1281613cd6565b9050919050565b7f50726f706f73616c206973206e6f742070656e64696e67000000000000000000600082015250565b6000613d4f60178361383e565b9150613d5a82613d19565b602082019050919050565b60006020820190508181036000830152613d7e81613d42565b9050919050565b7f496e73756666696369656e742062616c616e6365000000000000000000000000600082015250565b6000613dbb60148361383e565b9150613dc682613d85565b602082019050919050565b60006020820190508181036000830152613dea81613dae565b9050919050565b7f50726f706f73616c206973206e6f7420617070726f7665640000000000000000600082015250565b6000613e2760188361383e565b9150613e3282613df1565b602082019050919050565b60006020820190508181036000830152613e5681613e1a565b9050919050565b7f50726f706f73616c206973206e6f742061207370656e64696e672070726f706f60008201527f73616c0000000000000000000000000000000000000000000000000000000000602082015250565b6000613eb960238361383e565b9150613ec482613e5d565b604082019050919050565b60006020820190508181036000830152613ee881613eac565b9050919050565b7f54686520616d6f756e74206d757374206265206c657373207468616e206f722060008201527f657175616c20746f207468652070726f706f73616c20616d6f756e7400000000602082015250565b6000613f4b603c8361383e565b9150613f5682613eef565b604082019050919050565b60006020820190508181036000830152613f7a81613f3e565b9050919050565b7f4e487b7100000000000000000000000000000000000000000000000000000000600052602260045260246000fd5b60006002820490506001821680613fc857607f821691505b602082108103613fdb57613fda613f81565b5b50919050565b7f5265736964656e74206973206120636f756e73656c6f72000000000000000000600082015250565b600061401760178361383e565b915061402282613fe1565b602082019050919050565b600060208201905081810360008301526140468161400a565b9050919050565b7f4f6e6c792070656e64696e672070726f706f73616c732063616e20626520656460008201527f6974656400000000000000000000000000000000000000000000000000000000602082015250565b60006140a960248361383e565b91506140b48261404d565b604082019050919050565b600060208201905081810360008301526140d88161409c565b9050919050565b60008190508160005260206000209050919050565b60006020601f8301049050919050565b600082821b905092915050565b6000600883026141417fffffffffffffffffffffffffffffffffffffffffffffffffffffffffffffffff82614104565b61414b8683614104565b95508019841693508086168417925050509392505050565b6000819050919050565b600061418861418361417e84613124565b614163565b613124565b9050919050565b6000819050919050565b6141a28361416d565b6141b66141ae8261418f565b848454614111565b825550505050565b600090565b6141cb6141be565b6141d6818484614199565b505050565b5b818110156141fa576141ef6000826141c3565b6001810190506141dc565b5050565b601f82111561423f57614210816140df565b614219846140f4565b81016020851015614228578190505b61423c614234856140f4565b8301826141db565b50505b505050565b600082821c905092915050565b600061426260001984600802614244565b1980831691505092915050565b600061427b8383614251565b9150826002028217905092915050565b6142948261342f565b67ffffffffffffffff8111156142ad576142ac6132ac565b5b6142b78254613fb0565b6142c28282856141fe565b600060209050601f8311600181146142f557600084156142e3578287015190505b6142ed858261426f565b865550614355565b601f198416614303866140df565b60005b8281101561432b57848901518255600182019150602085019450602081019050614306565b868310156143485784890151614344601f891682614251565b8355505b6001600288020188555050505b505050505050565b7f4f6e6c79206d616e61676572206f72207265736964656e742063616e2063616c60008201527f6c20746869732066756e6374696f6e0000000000000000000000000000000000602082015250565b60006143b9602f8361383e565b91506143c48261435d565b604082019050919050565b600060208201905081810360008301526143e8816143ac565b9050919050565b7f4e487b7100000000000000000000000000000000000000000000000000000000600052601160045260246000fd5b600061442982613124565b915061443483613124565b925082820190508082111561444c5761444b6143ef565b5b92915050565b7f5265736964656e7420686173206e6f742070616964207468652071756f74612060008201527f74686973206d6f6e746800000000000000000000000000000000000000000000602082015250565b60006144ae602a8361383e565b91506144b982614452565b604082019050919050565b600060208201905081810360008301526144dd816144a1565b9050919050565b7f50726f706f73616c20616c726561647920657869737473000000000000000000600082015250565b600061451a60178361383e565b9150614525826144e4565b602082019050919050565b600060208201905081810360008301526145498161450d565b9050919050565b7f496e76616c69642063617465676f727900000000000000000000000000000000600082015250565b600061458660108361383e565b915061459182614550565b602082019050919050565b600060208201905081810360008301526145b581614579565b9050919050565b7f4f7074696f6e2063616e6e6f7420626520656d70747900000000000000000000600082015250565b60006145f260168361383e565b91506145fd826145bc565b602082019050919050565b60006020820190508181036000830152614621816145e5565b9050919050565b7f566f7465206973206e6f74206f70656e00000000000000000000000000000000600082015250565b600061465e60108361383e565b915061466982614628565b602082019050919050565b6000602082019050818103600083015261468d81614651565b9050919050565b7f4e487b7100000000000000000000000000000000000000000000000000000000600052603260045260246000fd5b7f416c726561647920766f74656400000000000000000000000000000000000000600082015250565b60006146f9600d8361383e565b9150614704826146c3565b602082019050919050565b60006020820190508181036000830152614728816146ec565b9050919050565b600060ff82169050919050565b60006147478261472f565b915060ff820361475a576147596143ef565b5b600182019050919050565b7f496e76616c696420616464726573730000000000000000000000000000000000600082015250565b600061479b600f8361383e565b91506147a682614765565b602082019050919050565b600060208201905081810360008301526147ca8161478e565b9050919050565b7f54686520636f756e73656c6f72206d7573742062652061207265736964656e74600082015250565b600061480760208361383e565b9150614812826147d1565b602082019050919050565b60006020820190508181036000830152614836816147fa565b9050919050565b7f4e6f7420656e6f75676820766f74657300000000000000000000000000000000600082015250565b600061487360108361383e565b915061487e8261483d565b602082019050919050565b600060208201905081810360008301526148a281614866565b9050919050565b7f4f6e6c79206d616e61676572206f7220636f756e73656c6f722063616e20636160008201527f6c6c20746869732066756e6374696f6e00000000000000000000000000000000602082015250565b600061490560308361383e565b9150614910826148a9565b604082019050919050565b60006020820190508181036000830152614934816148f8565b9050919050565b7f5265736964656e636520646f6573206e6f742065786973740000000000000000600082015250565b600061497160188361383e565b915061497c8261493b565b602082019050919050565b600060208201905081810360008301526149a081614964565b9050919050565b7f4f6e6c792070656e64696e672070726f706f73616c732063616e20626520726560008201527f6d6f766564000000000000000000000000000000000000000000000000000000602082015250565b6000614a0360258361383e565b9150614a0e826149a7565b604082019050919050565b60006020820190508181036000830152614a32816149f6565b9050919050565b7f496e73756666696369656e7420616d6f756e7400000000000000000000000000600082015250565b6000614a6f60138361383e565b9150614a7a82614a39565b602082019050919050565b60006020820190508181036000830152614a9e81614a62565b9050919050565b7f51756f746120616c726561647920706169642074686973206d6f6e7468000000600082015250565b6000614adb601d8361383e565b9150614ae682614aa5565b602082019050919050565b60006020820190508181036000830152614b0a81614ace565b905091905056fea2646970667358221220d8b0ba7bcb19c6e74b40b900fa949d1b39210699da417d56f2341219d4ca3a2464736f6c634300081b0033",
  "linkReferences": {},
  "deployedLinkReferences": {}
}